:020000040000FA
:020000003A289C
:040002000034003492
:08000800AA00030EA900040E7A
:10001000AB000B1D1A280B11240882071128172882
:10002000A4010714220881018102A40A1A280710DA
:100030008101A40A0C1F33280C13280882072328E7
:1000400028282D28A8011E08A5009F111F1531285A
:100050001E08A6009F151F1131281E08A7009F111A
:100060001F11A80A9F14290E83002B0E8400AA0ECC
:040070002A0E09004B
:0C007400031783160730880081128111E9
:100080000111811401140313FF30850087018B17C0
:100090000B170C178C16FF3092009F0183120B1167
:1000A00081018B160C3097009D0006309200413084
:1000B0009F00A901AA01A501A601A701A201A8010B
:1000C000A001A1019F14253084007320230895000E
:1000D00026308400732023089B002730840073207F
:1000E0002308A200632883130310000C1F3EA30003
:1000F0000800831203138030A100A10B7D280800A3
:02400E00D420BC
:02401000FF3F70
:00000001FF
