:020000040000FA
:020000003C289A
:040002000034003492
:08000800AA00030EA9000B1D64
:1000100018280B11240882070F281528A40187151A
:10002000810122088102A40A182887118101A40AEB
:100030000C1F37280C1328088207212826282C2873
:10004000A8011E08A500A80A1F1531281E08A60031
:10005000A80A9F151F1131281E08A700A80A9F1182
:100060003128000000000000000000009F14290E4D
:080070008300AA0E2A0E09000C
:08007800031783168801081428
:10008000881408150313FF3085008701FF309200A4
:10009000811281110111811401148B170B170B119F
:1000A0000C179F139F121F12831241309F000C13D5
:1000B00081018C10063092000C3097009D00850164
:1000C0008701A901AA01A501A601A701A201A80112
:1000D000A001A1019F142508782023089500260877
:1000E000782023089B00270878202308A2006B288B
:1000F000A3000310A30C1F30A307080083120313EF
:0A0100008030A100A10B8228080046
:02400E00D420BC
:02401000FF3F70
:00000001FF
