:020000040000FA
:02000000452891
:040002000034003492
:08000800A600030EA7000B1D6A
:1000100021280B112C088207102816281D28AC0156
:1000200007142A0881018102AC0A212807108715CC
:100030002B0881018102AC0A212807108711810158
:10004000AC0A0C1F40280C13240882072B283028E8
:1000500035283A28A4011E08A0009F111F153E282C
:100060001E08A1009F151F113E281E08A2009F1503
:100070001F153E281E08A3009F111F11A40A9F14DC
:0A008000270E8300A60E260E0900CD
:06008A0083170317831623
:100090000F3088008901811281110111811401142E
:1000A0000313FF308500870188018B170B170C178E
:1000B000FF3092009F0183120B1181018B160C30CF
:1000C00097009D000630920041309F00A001A101E1
:1000D000A201A301A401A501AC019F14203084005A
:1000E000832029089500213084008320A9089B00E3
:1000F0002230840083202908AA0023308400832032
:100100002908AB006E2883130310000C1F3EA900C2
:040110008317080049
:02400E00D420BC
:02401000FF3F70
:00000001FF
