:020000040000FA
:020000001B29BA
:040002000034003492
:08000800AC00030EAD00040E74
:10001000AE000B1D23280B11360882071228182862
:100020001F28B6010714340881018102B60A44284A
:1000300007108715350881018102B60A4428071088
:1000400087118101B60A0C1C44280C10DF0B4028D4
:100050005D085B02031C2E28FF30DB00DB0A5E22FA
:100060005C08AF00DB0A5E225C08B000DB0A5E229F
:100070005C08B100DB0A5E225C08B200240ADF00E3
:10008000F6308F003C308E008C1EBA281A08C6004D
:100090004508FF3C03197E28C60A450882075328F5
:1000A0005C2865286E2846083930380784003030CF
:1000B00046028000B80A762846083C30380784009B
:1000C000303046028000B80A762846083F303807AC
:1000D0008400303046028000B80A76284608423054
:1000E00038078400303046028000B80A3808033CE4
:1000F000031DBA28FF30B801C500BA284608413CA4
:10010000031D85280030C500BA284608423C031D5F
:100110008C280130C500BA284608433C031D9328AB
:100120000230C500BA284608443C031D9A28033013
:10013000C500BA284608473C031DA0282714860995
:100140004608453C031DA628FF30DD0046084E3C0E
:10015000031DAC280130A6004608503C031DB22800
:100160000230A6004608533C031DB8280430A60000
:10017000FF30C5000C1FDF280C1325088207C52897
:10018000CA28CF28D428D928A5011E08A0009F116D
:100190001F15DD281E08A1009F151F11DD281E0850
:1001A000A2009F151F15DD281E08A3009F151F150F
:1001B000DD281E08A4009F111F11A50A9F142D0EF3
:1001C00083002E0E8400AC0E2C0E09000C1E0800BD
:1001D00037088207FB28FD28FF2813290129032956
:1001E00005291329072909290B2913290D290F2965
:1001F00011291529B701470817294808172949085F
:1002000017295008172951081729520817294A0891
:1002100017294B0817294C0817294D0817294E088C
:1002200017294F0817292C3018290A301829303E71
:060230009900B70A080066
:0A0236008313031783161F3088009E
:100240008901811281110111811401148C1303138E
:10025000FF30850089008800870186018B170B1706
:100260000C178C160C14FF3092009F01181398166F
:1002700018121815193099008312981718131816A8
:100280000B1181018B161013901610169010F6307A
:100290008F003C308E000C3097009D00063092009D
:1002A00041309F00A001A101A201A301A501A60167
:1002B000B601B701B801C501DE010130A600B900E1
:1002C000BA00BB00BC00BD00BE00BF00C000C10042
:1002D000C200C300C400FF30DD00DB000230DF00DD
:1002E000A7019F142B08AA0072220908AB002A1C40
:1002F00083292B1883290310A60D08302602031D1D
:1003000083290130A600AA1C8729AB1C27142A1DAB
:100310008B292B1DA71426189229A6189E29261969
:10032000BE2972298601861710102008AF00210807
:10033000B0002208B1002308B200C12986010617C7
:1003400010103930840003225308D7003C30840059
:1003500003225308D8003F30840003225308D900F9
:100360004230840003225308DA005708AF005808CF
:10037000B0005908B1005A08B200C129860186169A
:100380001014313084003F2233089500303084004F
:100390003F22B3089B002F3084003F223308B40073
:1003A000323084003F223308B5002F08D300473095
:1003B00084001E223008D300503084001E223108F1
:1003C000D3004A3084001E223208D3004D3084000E
:1003D0001E22E620A71CEF29FF30DD00A710271CF6
:1003E0007229DD0A2F08DE004522DD0A3008DE0012
:1003F0004522DD0A3108DE004522DD0A3208DE0032
:100400004522271072290008D400840A0008D5006C
:10041000840A0008D600D3016430D40B102A122AB3
:10042000D3070C2A0A30D50B162A182AD307122A0A
:100430000130D60B1C2A0800D307182AD401D50195
:10044000D60164305302031C282AD40AD300212A7F
:100450000A305302031C2F2AD50AD300282A013060
:100460005302031C362AD60AD3002F2A54088000D0
:10047000840A55088000840A560880000800831307
:100480000310000C1F3EB30008008B135D08031718
:1004900083128D00031383125E08031783128C00EE
:1004A00083160C1555308D00AA308D008C140C115C
:1004B0008C18582A031383128B1708008B135B08C0
:1004C000031783128D00031783160C1483120C0874
:1004D0000313DC008B1708006430A9007222A90BFB
:0E04E0006E2A0800C830A800A80B742A080075
:02400E00D420BC
:02401000FF3F70
:00000001FF
