:020000040000FA
:02000000D62800
:040002000034003492
:08000800A900030EAA00040E7A
:10001000AB000B1D23280B11340882071228182867
:100020001F28B4010714320881018102B40A232871
:1000300007108715330881018102B40A23280710AD
:1000400087118101B40A8C1E7B281A08C40043085A
:10005000FF3C03195D28C40A4308820732283B2865
:1000600044284D2844083730360784003030440295
:100070008000B60A552844083A30360784003030EC
:1000800044028000B60A552844083D3036078400F3
:10009000303044028000B60A552844084030360704
:1000A0008400303044028000B60A3608033C031D49
:1000B0007B28FF30B601C3007B284408413C031D68
:1000C00064280030C3007B284408423C031D6B2891
:1000D0000130C3007B284408433C031D72280230D2
:1000E000C3007B284408443C031D79280330C30027
:1000F0007B28FF30C3000C1F9A280C1324088207AA
:1001000085288A288F289428A4011E08A0009F1102
:100110001F1598281E08A1009F151F1198281E085A
:10012000A2009F151F1598281E08A3009F111F11DC
:10013000A40A9F142A0E83002B0E8400A90E290EF8
:1001400009000C1E080035088207B628B828BA280E
:10015000CE28BC28BE28C028CE28C228C428C6283D
:10016000CE28C828CA28CC28D028B5014508D228CE
:100170004608D2284708D2284E08D2284F08D2284D
:100180005008D2284808D2284908D2284A08D2283C
:100190004B08D2284C08D2284D08D2282C30D3281E
:0C01A0000A30D328303E9900B50A080050
:0401AC00831303179F
:1001B00083160F3088008901811281110111811489
:1001C00001140313FF308500870186018B170B177D
:1001D0000C178C16FF3092009F01181398161812F6
:1001E00018151930990083129817181318160B1147
:1001F00081018B160C3097009D0006309200413033
:100200009F00A001A101A201A301A401A501B401C5
:10021000B501B601C3010130A500B700B800B900AF
:10022000BA00BB00BC00BD00BE00BF00C000C100E2
:10023000C2009F142808A700C7210508A800271E90
:100240002B29281A2B290310A50D04302502031D84
:100250002B290130A5000C1325183129A5183C299C
:100260001A29860186172008AC002108AD00220853
:10027000AE002308AF005A298601061737308400E4
:1002800085215108D5003A30840085215108D600D7
:100290003D30840085215108D700403084008521FD
:1002A0005108D8005508AC005608AD005708AE00FC
:1002B0005808AF000C172E308400C121310895007A
:1002C0002D308400C121B1089B002C308400C12155
:1002D0003108B2002F308400C1213108B3002C084E
:1002E000D10045308400A0212D08D1004E3084007B
:1002F000A0212E08D10048308400A0212F08D10071
:100300004B308400A021A1201A290008D200840AC1
:100310000008D300840A0008D400D1016430D20B55
:1003200092299429D1078E290A30D30B98299A292A
:10033000D10794290130D40B9E290800D1079A29AE
:10034000D201D301D40164305102031CAA29D20A7C
:10035000D100A3290A305102031CB129D30AD100CC
:10036000AA2901305102031CB829D40AD100B129AD
:1003700052088000840A53088000840A54088000D0
:10038000080083130310000C1F3EB1000800C830A2
:08039000A600A60BC929080014
:02400E00D420BC
:02401000FF3F70
:00000001FF
