:020000040000FA
:020000001529C0
:040002000034003492
:08000800AB00030EAC00040E76
:10001000AD000B1D23280B11350882071228182864
:100020001F28B5010714330881018102B50A44284D
:1000300007108715340881018102B50A442807108A
:1000400087118101B50A0C1C44280C10DE0B4028D6
:100050005C085A02031C2E28FF30DA00DA0A51220B
:100060005B08AE00DA0A51225B08AF00DA0A5122BF
:100070005B08B000DA0A51225B08B1000230DE00F2
:100080000B308F00DC308E008C1EBA281A08C50099
:100090004408FF3C03197E28C50A440882075328F8
:1000A0005C2865286E2845083830370784003030D2
:1000B00045028000B70A762845083B3037078400A0
:1000C000303045028000B70A762845083E303707B1
:1000D0008400303045028000B70A76284508413058
:1000E00037078400303045028000B70A3708033CE8
:1000F000031DBA28FF30B701C400BA284508413CA7
:10010000031D85280030C400BA284508423C031D61
:100110008C280130C400BA284508433C031D9328AD
:100120000230C400BA284508443C031D9A28033015
:10013000C400BA284508473C031DA0282614860998
:100140004508453C031DA628FF30DC0045084E3C11
:10015000031DAC280130A5004508503C031DB22802
:100160000230A5004508533C031DB8280430A50003
:10017000FF30C4000C1FD9280C1324088207C428A0
:10018000C928CE28D328A4011E08A0009F111F153E
:10019000D7281E08A1009F151F11D7281E08A200EE
:1001A0009F151F15D7281E08A3009F111F11A40A11
:1001B0009F142C0E83002D0E8400AB0E2B0E090015
:1001C0000C1E080036088207F528F728F9280D29A3
:1001D000FB28FD28FF280D290129032905290D29C0
:1001E000072909290B290F29B601460811294708B3
:1001F0001129480811294F081129500811295108BF
:100200001129490811294A0811294B0811294C08BC
:1002100011294D0811294E0811292C3012290A30B4
:0A0220001229303E9900B60A0800CA
:06022A0083130317831685
:100230000F3088008901811281110111811401148C
:100240008C130313FF308500870186018B170B1772
:100250000C178C160C14FF3092009F01181398167F
:1002600018121815193099008312981718131816B8
:100270000B1181018B1610139016101690100B3075
:100280008F00DC308E000C3097009D00063092000D
:1002900041309F00A001A101A201A301A401A50179
:1002A000B501B601B701C401DD010130A500B800F8
:1002B000B900BA00BB00BC00BD00BE00BF00C0005A
:1002C000C100C200C300FF30DC00DA000230DE00F3
:1002D000A6019F142A08A90065220508AA00291E64
:1002E0007B292A1A7B290310A50D08302502031D3E
:1002F0007B290130A500A91E7F29AA1E26142518D6
:100300008629A51892292519B2296A2986018617F6
:1003100010102008AE002108AF002208B00023080A
:10032000B100B52986010617101038308400F62177
:100330005208D6003B308400F6215208D7003E30E8
:100340008400F6215208D80041308400F62152087A
:10035000D9005608AE005708AF005808B000590839
:10036000B100B5298601861610143030840032227F
:10037000320895002F3084003222B2089B002E30C4
:10038000840032223208B300313084003222320835
:10039000B4002E08D2004630840011222F08D2006B
:1003A0004F30840011223008D200493084001122DD
:1003B0003108D2004C3084001122E020A61CE22932
:1003C000DC01A610261C6A29DC0A2E08DD00382272
:1003D000DC0A2F08DD003822DC0A3008DD00382274
:1003E000DC0A3108DD00382226106A290008D30013
:1003F000840A0008D400840A0008D500D2016430C1
:10040000D30B032A052AD207FF290A30D40B092A65
:100410000B2AD207052A0130D50B0F2A0800D20774
:100420000B2AD301D401D50164305202031C1B2ACC
:10043000D30AD200142A0A305202031C222AD40AF8
:10044000D2001B2A01305202031C292AD50AD200ED
:10045000222A53088000840A54088000840A550820
:100460008000080083130310000C1F3EB200080038
:100470008B135C08031783128D00031383125D082E
:10048000031783128C0083160C1555308D00AA308B
:100490008D008C140C118C184B2A031383128B17AC
:1004A00008008B135A08031783128D000317831655
:1004B0000C1483120C080313DB008B170800643044
:1004C000A8006522A80B612A0800C830A700A70B66
:0404D000672A08008F
:02400E00D420BC
:02401000FF3F70
:00000001FF
