:020000040000FA
:02000000D42802
:040002000034003492
:08000800A900030EAA00040E7A
:10001000AB000B1D23280B11340882071228182867
:100020001F28B4010714320881018102B40A232871
:1000300007108715330881018102B40A23280710AD
:1000400087118101B40A8C1E79281A08C40043085C
:10005000003C03195C28C40A4308820732283B2865
:1000600044284D2844083730360784003030440295
:100070008000B60A552844083A30360784003030EC
:1000800044028000B60A552844083D3036078400F3
:10009000303044028000B60A552844084030360704
:1000A0008400303044028000B60A3608033C031D49
:1000B0007928B601C30179284408413C031D63280F
:1000C0000130C30079284408423C031D6A280230ED
:1000D000C30079284408433C031D71280330C30042
:1000E00079284408443C031D78280430C30079284B
:1000F000C3010C1F98280C13240882078328882822
:100100008D289228A4011E08A0009F111F15962873
:100110001E08A1009F151F1196281E08A2009F15FA
:100120001F1596281E08A3009F111F11A40A9F14D3
:100130002A0E83002B0E8400A90E290E09000C1E26
:10014000080035088207B428B628B828CC28BA2871
:10015000BC28BE28CC28C028C228C428CC28C62841
:10016000C828CA28CE28B5014508D0284608D02876
:100170004708D0284E08D0284F08D0285008D0284B
:100180004808D0284908D0284A08D0284B08D02849
:100190004C08D0284D08D0282C30D1280A30D1283E
:0801A000303E9900B50A080089
:0801A8008313031783160F30C7
:1001B0008800890181128111011181140114031336
:1001C000FF308500870186018B170B170C178C16E3
:1001D000FF3092009F011813981618121815193045
:1001E000990083129817181318160B1181018B169A
:1001F0000C3097009D000630920041309F00A00116
:10020000A101A201A301A401A501B401B501B60198
:10021000C3010130A500B700B800B900BA00BB00A7
:10022000BC00BD00BE00BF00C000C100C2009F14E2
:100230002808A700C5210508A800271E2929281A73
:1002400029290310A50D04302502031D2929013099
:10025000A5000C1325182F29A5183A29182986015D
:1002600086172008AC002108AD002208AE00230844
:10027000AF005829860106173730840083215108C2
:10028000D5003A30840083215108D6003D308400E7
:1002900083215108D7004030840083215108D800C1
:1002A0005508AC005608AD005708AE005808AF001E
:1002B0000C172E308400BF21310895002D308400AA
:1002C000BF21B1089B002C308400BF213108B2004F
:1002D0002F308400BF213108B3002C08D1004530F5
:1002E00084009E212D08D1004E3084009E212E08CE
:1002F000D100483084009E212F08D1004B3084006B
:100300009E219F2018290008D200840A0008D300EB
:10031000840A0008D400D1016430D20B90299229BC
:10032000D1078C290A30D30B96299829D107922915
:100330000130D40B9C290800D1079829D201D301A0
:10034000D40164305102031CA829D20AD100A1298A
:100350000A305102031CAF29D30AD100A829013069
:100360005102031CB629D40AD100AF2952088000DB
:10037000840A53088000840A54088000080083130C
:100380000310000C1F3EB1000800C830A600A60BE9
:04039000C729080071
:02400E00D420BC
:02401000FF3F70
:00000001FF
