:020000040000FA
:02000000DB28FB
:040002000034003492
:08000800AB00030EAC00040E76
:10001000AD000B1D23280B11350882071228182864
:100020001F28B5010714330881018102B50A23286E
:1000300007108715340881018102B50A23280710AB
:1000400087118101B50A8C1E80281A08C500440852
:10005000FF3C03195D28C50A4408820732283B2863
:1000600044284D2845083830370784003030450291
:100070008000B70A552845083B30370784003030E8
:1000800045028000B70A552845083E3037078400EE
:10009000303045028000B70A5528450841303707FF
:1000A0008400303045028000B70A3708033C031D46
:1000B0008028FF30B701C40080284508413C031D5B
:1000C00064280030C40080284508423C031D6B288A
:1000D0000130C40080284508433C031D72280230CB
:1000E000C40080284508443C031D79280330C4001F
:1000F00080284508473C031926148609FF30C400B0
:100100000C1F9F280C13240882078A288F28942804
:100110009928A4011E08A0009F111F159D281E08E4
:10012000A1009F151F119D281E08A2009F151F15D5
:100130009D281E08A3009F111F11A40A9F142C0EB6
:1001400083002D0E8400AB0E2B0E09000C1E080040
:1001500036088207BB28BD28BF28D328C128C3285A
:10016000C528D328C728C928CB28D328CD28CF28ED
:10017000D128D528B6014608D7284708D7284808E7
:10018000D7284F08D7285008D7285108D72849081A
:10019000D7284A08D7284B08D7284C08D7284D0815
:1001A000D7284E08D7282C30D8280A30D828303EF7
:0601B0009900B60A0800E8
:0A01B6008313031783160F3088002F
:1001C0008901811281110111811401148C1303130F
:1001D000FF308500870186018B170B170C178C16D3
:1001E000FF3092009F011813981618121815193035
:1001F000990083129817181318160B1181018B168A
:100200000C3097009D000630920041309F00A00105
:10021000A101A201A301A401A501B501B601B70185
:10022000C401DD010130A500B800B900BA00BB006F
:10023000BC00BD00BE00BF00C000C100C200C300C2
:10024000FF30DC00DA00A6019F142A08A900302242
:100250000508AA00291E36292A1A36290310A50DD9
:1002600008302502031D36290130A50025183D2937
:10027000A5184829251967292529860186172008E8
:10028000AE002108AF002208B0002308B100802989
:100290008601061738308400C1215208D6003B3051
:1002A0008400C1215208D7003E308400C121520889
:1002B000D80041308400C1215208D9005608AE0050
:1002C0005708AF005808B0005908B10080298601CE
:1002D00086165C085A02031D6F29FF30DA00DA0A1D
:1002E0001C225B08AE00DA0A1C225B08AF00DA0AA7
:1002F0001C225B08B000DA0A1C225B08B1002A222B
:1003000030308400FD21320895002F308400FD211B
:10031000B2089B002E308400FD213208B30031303A
:100320008400FD213208B4002E08D200463084003B
:10033000DC212F08D2004F308400DC213008D200AD
:1003400049308400DC213108D2004C308400DC21AB
:10035000A620A61CAD29DC01A610261C2529DC0A36
:100360002E08DD000322DC0A2F08DD000322DC0A50
:100370003008DD000322DC0A3108DD0003222610EC
:1003800025290008D300840A0008D400840A000844
:10039000D500D2016430D30BCE29D029D207CA2987
:1003A0000A30D40BD429D629D207D0290130D50B55
:1003B000DA290800D207D629D301D401D501643047
:1003C0005202031CE629D30AD200DF290A30520266
:1003D000031CED29D40AD200E62901305202031C85
:1003E000F429D50AD200ED2953088000840A540864
:1003F0008000840A55088000080083130310000C55
:100400001F3EB20008008B135C08031783128D0097
:10041000031383125D08031783128C0083160C15D7
:1004200055308D00AA308D008C140C118C18162AB2
:10043000031383128B1708008B135A0803178312B8
:100440008D00031783160C1483120C080313DB00B2
:100450008B1708006430A8003022A80B2C2A080053
:0A046000C830A700A70B322A0800DD
:02400E00D420BC
:02401000FF3F70
:00000001FF
