:020000040000FA
:020000007A285C
:040002000034003492
:08000800A600030EA7000B1D6A
:1000100021280B112C088207102816281D28AC0156
:1000200007142A0881018102AC0A212807108715CC
:100030002B0881018102AC0A212807108711810158
:10004000AC0A0C1F40280C13240882072B283028E8
:1000500035283A28A4011E08A0009F111F153E282C
:100060001E08A1009F151F113E281E08A2009F1503
:100070001F153E281E08A3009F111F11A40A9F14DC
:10008000270E8300A60E260E09000C1E08002D0860
:1000900082075A285C285E28722860286228642813
:1000A0007228662868286A2872286C286E287028AA
:1000B0007428AD013208762833087628340876286B
:1000C0003B0876283C0876283D08762835087628AF
:1000D00036087628370876283808762839087628AA
:1000E0003A0876282C3077280A307728303E990055
:0400F000AD0A08004D
:0C00F4008317031783160F308800890162
:10010000811281110111811401140313FF30850044
:10011000870188018B170B170C17FF3092009F0186
:100120001813981618121815193099008312981779
:10013000181318160B1181018B160C3097009D00B7
:100140000630920041309F00A001A101A201A3014D
:10015000A401A501AC01AD019F1420308400FF2053
:100160002908950021308400FF20A9089B00223037
:100170008400FF202908AA0023308400FF202908DA
:10018000AB002008AE00E7202F08B2003008B30013
:100190003108B4002108AE00E7202F08BB0030086A
:1001A000BC003108BD002208AE00E7202F08B500D2
:1001B0003008B6003108B7002308AE00E7202F084A
:1001C000B8003008B9003108BA004520AD28AF01A9
:1001D000B001B10164302E02031CF128AF0AAE0059
:1001E000EA280A302E02031CF828B00AAE00F128D3
:1001F00001302E02031C0800B10AAE00F828831358
:0C0200000310000C1F3EA900831708002B
:02400E00D420BC
:02401000FF3F70
:00000001FF
