:020000040000FA
:02000000D32803
:040002000034003492
:08000800A600030EA700040E80
:10001000A8000B1D23280B112D0882071228182871
:100020001F28AD0107142B0881018102AD0A232886
:10003000071087152C0881018102AD0A23280710BB
:1000400087118101AD0A8C1E78281A08BD003C0872
:10005000003C03195B283C08820731283A284328D2
:100060004C283D0830302F07840030303D0280009E
:10007000AF0A54283D0833302F07840030303D024A
:100080008000AF0A54283D0836302F0784003030F6
:100090003D028000AF0A54283D0839302F07840004
:1000A00030303D028000AF0A2F08033C031D782842
:1000B000AF01BC0178283D08413C031D6228013096
:1000C000BC0078283D08423C031D69280230BC0072
:1000D00078283D08433C031D70280330BC00782875
:1000E0003D08443C031D77280430BC007828BC013F
:1000F0000C1F97280C1324088207822887288C2835
:100100009128A4011E08A0009F111F1595281E0804
:10011000A1009F151F1195281E08A2009F151F15ED
:1001200095281E08A3009F111F11A40A9F14270ED3
:100130008300280E8400A60E260E09000C1E08005F
:100140002E088207B328B528B728CB28B928BB28A2
:10015000BD28CB28BF28C128C328CB28C528C7283D
:10016000C928CD28AE013E08CF283F08CF28400837
:10017000CF284708CF284808CF284908CF2841086A
:10018000CF284208CF284308CF284408CF28450865
:10019000CF284608CF282C30D0280A30D028303E2F
:0601A0009900AE0A080000
:0A01A6008313031783160F3088003F
:1001B0008901811281110111811401140313FF308F
:1001C0008500870188018B170B170C178C16FF30E1
:1001D00092009F01181398161812181519309900DB
:1001E00083129817181318160B1181018B160C30F7
:1001F00097009D000630920041309F00A001A101B0
:10020000A201A301A401A501AD01AE01AF01BC0192
:100210009F142030840054212A0895002130840046
:100220005421AA089B002230840054212A08AB00E4
:100230002330840054212A08AC002008CA003E3034
:10024000840033212108CA0047308400332122086A
:10025000CA004130840033212308CA00443084009E
:1002600033219E200929CB01CC01CD0164304A0203
:10027000031C3D29CB0ACA0036290A304A02031C56
:100280004429CC0ACA003D2901304A02031C4B29EB
:10029000CD0ACA0044294B088000840A4C0880001B
:1002A000840A4D088000080083130310000C1F3ED1
:0402B000AA00080098
:02400E00D420BC
:02401000FF3F70
:00000001FF
