:020000040000FA
:020000003228A4
:040002000034003492
:08000800A600030EA7000C1B6B
:100010000C288C182A282D280C1324088207142851
:1000200019281E282328A4011E08A0009F111F15AF
:1000300027281E08A1009F151F1127281E08A200AF
:100040009F151F1527281E08A3009F111F11A40A22
:100050009F142D288C1007148715270E8300A60ED9
:04006000260E09005F
:0C0064008317031783160F3088008901F2
:100070000313FF308500870188018B170B170C17BE
:100080008C14FF3092009F0183120C3097009D006A
:100090000630920041309F00A001A101A201A301FE
:1000A000A401A501AC019F147220203084007220AD
:1000B0007D202908950072202130840072207D2047
:1000C000A9089B0072202230840072207D2029081C
:1000D000AA0072202330840072207D202908AB0002
:1000E000722054288B132A081102031807102B0AB8
:1000F0001102031887118B17080083130310000CDB
:080100001F3EA900831708004F
:02400E00D420BC
:02401000FF3F70
:00000001FF
